:0400000010EF00F00D
:0400080055EF00F0C0
:0400180060EF00F0A5
:10002000800E956EE10E936E8A6A810ED56ED08E2B
:10003000F00EF26EF194F19EF19CF86A006A82A0D3
:1000400026EF00F0010EF76E28EF00F0020EF76EBB
:100050000250F72600C0F6FF2FEC00F0F0D70900A1
:10006000F5CF8CFF8A884CEC00F08A980900F5CF18
:100070008CFF8A824CEC00F08A920900F5CF8CFF4D
:100080008A844CEC00F08A940800F5CF8CFF8A86B5
:100090004CEC00F08A961200000000000000000006
:1000A00000000000000000001200F29201A05DEFCD
:1000B00000F0020E026E01901000026A0180100032
:1000C000F2940B0ED76EDC0ED66E120E00626BEF42
:0A00D00000F0006A1000002A100082
:10010000000000005E79787939783F003E5477002E
:06011000383E5B00000018
:1002000000000000796D783F6E00795400777377B5
:060210007D3F54000000D8
:10030000000000001579005E796D383E157C50774D
:06031000777700000000F9
:1004000000000000543F001C793F0054775E77776E
:06041000777700000000F8
:020000040030CA
:040000000000181EC6
:020005008181F7
:060008000FC00FE00F40E5
:00000001FF
