:020000040000FA
:0400000007EF00F016
:0A0008001A82B1ED06F0DDEF06F0FC
:1008000000536572766F2043656E74726F202020EE
:100810002000536572766F204465726563686120BD
:100820002000536572766F20497A7175696572642C
:0B08300061004375656E74613A0000C2
:10083C000F0EC16E9690810ED56EA00EF26E000E4C
:10084C00956EE9EC05F09C0E196ED70EE82EFED7CE
:10085C00192EFCD700F0FEEC06F0010E61EC06F050
:10086C00FAEC06F0320E126E080E136E070E146EB2
:10087C0019EC06F042EF04F00DC017F00EC018F0A2
:10088C0066EC05F0080E126E010E40EC06F00B50F3
:10089C00300F7DEC06F00950300F7DEC06F0075060
:1008AC00300F7DEC06F09C0E196ED70EE82EFED79D
:1008BC00192EFCD700F00EBE6DEF04F02B0E0D5C64
:1008CC00010E0E58D8A06DEF04F06FEF04F075EF29
:1008DC0004F0000E0E6E000E0D6E42EF04F00D4A89
:1008EC000E2A0EBE85EF04F00E5007E1640E0D5C6F
:1008FC00D8B083EF04F085EF04F09CEF04F0E50E24
:10090C00046E090E036E300E026E7E0E016E000E2A
:10091C00126E020E40EC06F0220E126E080E136ED2
:10092C000F0E146E19EC06F042EF04F00EBEA8EF99
:10093C0004F00E5009E1640E0D5CD8A0A8EF04F091
:10094C00AAEF04F0CFEF04F00EBEB8EF04F00E5097
:10095C0007E1C80E0D5CD8B0B6EF04F0B8EF04F0A8
:10096C00CFEF04F0EE0E046E6A0E036E270E026ECD
:10097C001D0E016E000E126E020E40EC06F0010E02
:10098C00126E080E136E0F0E146E19EC06F042EF79
:10099C0004F0F70E046ECB0E036E1D0E026EBC0E31
:1009AC00016E000E126E020E40EC06F0120E126E6C
:1009BC00080E136E0F0E146E19EC06F042EF04F0D5
:1009CC0042EF04F042EF04F042EF04F042EF04F087
:1009DC0007EF00F0000E146E12BEF9EF04F0F7EF03
:1009EC0004F001EF05F0116C121ED8B0122A010EA2
:1009FC00146E01EF05F010BE08EF05F006EF05F0E0
:100A0C0010EF05F00F6C101ED8B0102A010E141A3E
:100A1C0010EF05F0000E166E000E156E1150121030
:100A2C00D8B41BEF05F01DEF05F051EF05F0010EEA
:100A3C00136E27EF05F0D89011361236132A27EFD4
:100A4C0005F012AE2CEF05F02EEF05F021EF05F0BE
:100A5C0032EF05F032EF05F0D890153616361150FE
:100A6C000F5C12501058D8A03EEF05F040EF05F087
:100A7C0047EF05F011500F5E1250105A158047EFDA
:100A8C0005F0D89012321132132E32EF05F051EFDF
:100A9C0005F051EF05F01450D8B457EF05F059EFAD
:100AAC0005F05FEF05F0156C161ED8B0162A5FEF37
:100ABC0005F015C00FF016C010F065EF05F0120030
:100ACC0017C00FF018C010F0000E126E640E116EED
:100ADC00F0EC04F00FC00BF010C00CF00BC00FF0DA
:100AEC000CC010F0000E126E640E116EC8EC06F005
:100AFC000F1E101E0F4A102A17500F24056E185087
:100B0C001020066E05C00FF006C010F0000E126E1D
:100B1C000A0E116EF0EC04F00FC009F010C00AF0D0
:100B2C0009C00FF00AC010F0000E126E0A0E116E02
:100B3C00C8EC06F00F1E101E0F4A102A05500F2489
:100B4C00076E06501020086E1200F80E956E8C90F1
:100B5C008C828C84F00E00D0E82EFDD783CF0FF062
:100B6C008C94F00E00D0E82EFDD78C84F00E00D0C3
:100B7C00E82EFDD78C940F50800B0F6EDDEF05F037
:100B8C008C84F00E00D0E82EFDD783CF0FF08C9420
:100B9C00F00E00D0E82EFDD78C84F00E00D0E82E9D
:100BAC00FDD78C940F50800B0F6EDDEF05F0800E8F
:100BBC000F18D8B4E4EF05F0E6EF05F0C6EF05F03A
:100BCC00E8EF05F012008C908C92300EECEC06F0F5
:100BDC00200E126E2A0EE82EFED7122EFCD7200EF7
:100BEC00126E2A0EE82EFED7122EFCD7300EECEC2D
:100BFC0006F0F00E00D0E82EFDD7300EECEC06F02F
:100C0C00200EECEC06F0010E97EC06F0280E97EC9B
:100C1C0006F00F0E97EC06F0060E97EC06F0010EA0
:100C2C0097EC06F01200000E176E000E176E34EFE4
:100C3C0006F01750010D12C015F013C016F0F3504A
:100C4C001526F450162215C0F6FF16C0F7FF080043
:100C5C00F5507DEC06F0172A34EF06F01450175CB3
:100C6C00D8A03BEF06F03DEF06F01FEF06F03FEF8C
:100C7C0006F01200136E1304D8A447EF06F049EFE8
:100C8C0006F04FEF06F01250800F97EC06F060EF75
:100C9C0006F0020E1318D8A456EF06F058EF06F023
:100CAC0060EF06F01250C00F97EC06F060EF06F004
:100CBC0060EF06F01200126E1250D8A468EF06F026
:100CCC006AEF06F06FEF06F00E0E97EC06F06FEF82
:100CDC0006F01204D8A475EF06F077EF06F07CEF5F
:100CEC0006F00C0E97EC06F07CEF06F01200106E7E
:100CFC008C80ABEC05F0000E956EF00E00D0E82E5B
:100D0C00FDD78C928C948C801050F00B116E11507E
:100D1C00ECEC06F01038F00B116E1150ECEC06F008
:100D2C001200106E8C90ABEC05F0000E956EF00E70
:100D3C0000D0E82EFDD78C928C948C901050F00B38
:100D4C00116E1150ECEC06F01038F00B116E1150C6
:100D5C00ECEC06F01200060084A0B7EF06F0B9EF39
:100D6C0006F0C0EF06F08D9003C0D6FF04C0D7FF8D
:100D7C00C5EF06F08D8001C0D6FF02C0D7FFF294FC
:100D8C001A9211000F501102F3CF13F0F4CF14F09C
:100D9C000F501202F350142610501102F350142667
:100DAC0013C00FF014C010F0DCEF06F0120000EED0
:100DBC0001F00E0EEE6AE806FDE11A901A92000E92
:100DCC00F86E080EF76E00011EEF04F00F6E0F0E9A
:100DDC008C16F00E0F160F508C128C84F00E00D067
:100DEC00E82EFDD78C941200020E97EC06F0120040
:080DFC00010E97EC06F0120055
:020000040020DA
:08000000FFFFFFFFFFFFFFFF00
:020000040030CA
:0E0000000002181EFF8181FF0FC00FE00F40AD
:00000001FF
