:020000040000FA
:0400000010EF00F00D
:020004000000FA
:10002000939A800E956E81A21BEF00F081A04CEF99
:1000300000F062EF00F081A020EF00F036EF00F05A
:10004000770E8C6E8A8AC80ED56E6A0ED66EF294C2
:10005000F2A428EF00F08A9AC10ED56E2C0ED66E4F
:10006000F294F2A431EF00F013EF00F07C0E8C6EEE
:100070008A8AC00ED56E060ED66EF294F2A43EEFBA
:1000800000F08A9AC00ED56E060ED66EF294F2A4D7
:1000900047EF00F013EF00F0390E8C6E8A8AC10E24
:1000A000D56E2C0ED66EF294F2A454EF00F08A9A1C
:1000B000C80ED56E6A0ED66EF294F2A45DEF00F013
:0E00C00013EF00F05E0E8C6E8A8A13EF00F0D4
:020000040030CA
:0100010000FE
:0100020018E5
:010003001EDE
:010005008179
:010006008178
:00000001FF
