:020000040000FA
:0400000007EF00F016
:10000800548209ED00F05FEF01F00600D9CF49F006
:10001800DACF4AF09E9A5BD0750E406E000E416EA4
:10002800000E436E140E426E14EC02F047EC02F020
:100038008D8065D0600E406E000E416E000E436EDE
:10004800140E426E14EC02F047EC02F08D9057D07B
:10005800590E406E010E416E000E436E140E426E34
:1000680014EC02F047EC02F0DEEC01F048D081A07D
:100078000DD0440E406E010E416E000E436E140EFC
:10008800426E14EC02F047EC02F039D02F0E406EAD
:10009800010E416E000E436E140E426E14EC02F017
:1000A800F2D78A0E406E000E416E000E436E140E9B
:1000B800426E14EC02F0E7D71A0E406E010E416E44
:1000C800000E436E140E426E14EC02F0DCD7AE50F4
:1000D800476E486A4850000AD8A4EED74750310AFC
:1000E800D8B49AD7030AD8B4A5D7010AD8B4B0D7D8
:1000F800070AD8B4BCD7010AD8B4D3D7DDD74AC0C9
:10010800DAFF49C0D9FF549211002B0E4B6E000E36
:100118004C6E000E4E6E140E4D6EFCEC01F03EEC73
:1001280002F0160E4B6E000E4C6E000E4E6E140E44
:100138004D6EFCEC01F03EEC02F0010E4B6E000E31
:100148004C6E000E4E6E140E4D6EFCEC01F03EEC43
:1001580002F0DE0E4B6E000E4C6E000E4E6E140E4C
:100168004D6EFCEC01F03EEC02F0C90E4B6E000E39
:100178004C6E000E4E6E140E4D6EFCEC01F03EEC13
:1001880002F0B40E4B6E000E4C6E000E4E6E140E46
:100198004D6EFCEC01F03EEC02F09F0E4B6E000E33
:1001A8004C6E000E4E6E140E4D6EFCEC01F03EECE3
:1001B80002F012004C4544206170616761646F2051
:1001C8002020202020202020004C454420656E63FC
:1001D800656E6469646F20202020202020004B6118
:1001E8006C756E204A6F7365204C61752047616E8F
:1001F800202000283529204175746F722020202086
:1002080020202020202020002834292045737461D4
:10021800646F2064656C20626F746F6E00283329E8
:1002280020506172706164656173204C45442020E0
:10023800200028322920417061676173204C4544B1
:1002480020202020202000456C656374726F6E6941
:100258006361202D204D65636174726F6E696361FF
:10026800005465636C61206572726F6E6561202051
:10027800202020202000426F746F6E2073696E204A
:1002880070726573696F6E61722000426F746F6E71
:100298002070726573696F6E61646F202020200082
:1002A8004C45442070617270616465616E646F20B2
:0502B8002020202000C1
:1002BE004F0EF66E020EF76E000EF86E01EE00F0A7
:1002CE0010EE6EF00900F5CFEEFFE550E150FAE1C9
:1002DE00BC0EF66E010EF76E000EF86E00EE60F0BC
:1002EE0010EE93F00900F5CFEEFFE550E150FAE184
:1002FE007C0EF66E030EF76E000EF86E00EE01F039
:10030E0010EE3FF00900F5CFEEFFE550E150FAE1B7
:10031E0054905492000EF86E000196EF01F02CEC02
:10032E0002F0550E50EC02F0500E50EC02F0430E5F
:10033E0050EC02F03EEC02F0000E4B6E010E4C6ED5
:10034E00000E4E6E190E4D6EFCEC01F03EEC02F0FE
:10035E0089EC00F0CB0E536EEC0E526E840EE82E2E
:10036E00FED7522EFCD7532EFAD700D0DAD728312B
:10037E002920456E6369656E646573204C45442083
:10038E002020004573636F6A61206F7063696F6E22
:10039E003A202020202020004269656E76656E6925
:0D03AE00646F7320616C206D656E7520001A
:1003BC001AD08D80150E416E4B0E406EBE0EE82E7F
:1003CC00FED7402EFCD7412EFAD700D08D90150EBB
:1003DC00416E4B0E406EBE0EE82EFED7402EFCD763
:1003EC00412EFAD700D09EBA1200E3D7000E516E00
:1003FC000BD051504B24D96E000E4C20DA6EDF50CE
:10040C00AD6EACA2FED7512A51504F6E506A4D5072
:10041C004F5C4E505058D8B01200EBD7000E466EC1
:10042C000BD046504024D96E000E4120DA6EDF50BE
:10043C00AD6EACA2FED7462A4650446E456A425079
:10044C00445C43504558D8B01200EBD7B896AC98E2
:10045C00AC94000EB06E330EAF6EAC8AAB88AB8E24
:10046C00949CF28EF28C9D8A0F0EC16E96901200A7
:10047C000A0EAD6EACA2FED70D0EAD6EACB2120074
:10048C00FDD70A0EAD6EACA2FED70D0EAD6EACB2A2
:10049C001200FDD74B6E4BC0ADFFACB21200FDD7B6
:020000040020DA
:08000000FFFFFFFFFFFFFFFF00
:020000040030CA
:0E0000000802181EFF8181FF0FC00FE00F40A5
:00000001FF
