:040000008EEF3FF050
:107F08000102040810204080402010080402814229
:107F180024182442080EF66E7F0EF76E000EF86ED7
:107F280000EE01F010EE14F00900F5CFEEFFE55079
:107F3800E150FAE1176A0001A2EF3FF0000E956EDA
:107F48009380938C81AC2CD0000E176E0D0E1764A5
:107F580001D0F8D71750010D010EF324D96E000E89
:107F6800F420DA6EDF508C6E81A00CD0070E166EEE
:107F7800170E156E6A0EE82EFED7152EFCD7162E94
:107F8800FAD70BD01F0E166E710E156E1E0EE82E48
:107F9800FED7152EFCD7162EFAD700D0172AD6D71B
:107FA800000E176E050E176401D0CCD71750010DBF
:107FB8000F0EF324D96E000EF420DA6EDF508C6EAB
:107FC80081A00CD0070E166E170E156E6A0EE82EDD
:107FD800FED7152EFCD7162EFAD70BD01F0E166E0D
:107FE800710E156E1E0EE82EFED7152EFCD7162E16
:087FF800FAD700D0172AD6D7F2
:020000040020DA
:08000000FFFFFFFFFFFFFFFF00
:020000040030CA
:0E0000000002181EFF8181FF0FC00FE00F40AD
:00000001FF
