:020000040000FA
:040000006FEF06F0A8
:100800000043616E616C6F6E204144434D4F4E3A20
:1008100000001BC013F01CC014F0270E166E100E43
:10082000156E28EC05F013C00FF014C010F00FC0C7
:1008300013F010C014F0D80E166EF00E156E2EECDC
:1008400006F01B501324016E1C501420026E01C0D0
:1008500013F002C014F0030E166EE80E156E28ECAD
:1008600005F013C00DF014C00EF00DC013F00EC053
:1008700014F0FC0E166E180E156E2EEC06F00150DC
:100880001324056E02501420066E05C013F006C036
:1008900014F0000E166E640E156E28EC05F013C0F1
:1008A0000BF014C00CF00BC013F00CC014F0FF0ED2
:1008B000166E9C0E156E2EEC06F005501324036E7A
:1008C00006501420046E03C013F004C014F0000E90
:1008D000166E0A0E156E28EC05F013C009F014C050
:1008E0000AF009C013F00AC014F0FF0E166EF60EDF
:1008F000156E2EEC06F003501324076E04501420DE
:10090000086E1200156E926896680F0E936E1FD0D7
:100910000E0EC16E1544E846FC0BC26E47D00D0E9C
:10092000F8D70C0EF6D70B0EF4D70A0EF2D7090E35
:10093000F0D7080EEED7070EECD7060EEAD7050E55
:10094000E8D7040EE6D7030EE4D7020EE2D715501F
:10095000136E146A1450000AD8A428D01350000A49
:10096000D8B4D6D7010AD8B4DAD7030AD8B4D9D7BD
:10097000010AD8B4D8D7070AD8B4D7D7010AD8B44F
:10098000D6D7030AD8B4D5D7010AD8B4D4D70F0A1A
:10099000D8B4D3D7010AD8B4D2D7030AD8B4D1D7A0
:1009A000010AD8B4D0D7070AD8B4CFD7910EC06EF9
:1009B000C2801200000E82EC04F094948B84030E2B
:1009C0001E6E8A0E1D6E560EE82EFED71D2EFCD70B
:1009D0001E2EFAD7000E956E9BEC05F0140E1D6EC0
:1009E0007A0EE82EFED71D2EFCD7010E53EC06F032
:1009F00018EC06F013C011F014C012F07AEC06F0F7
:100A0000010E166E080E176E0F0E186EFFEC05F035
:100A1000000E166E020E41EC06F011C01BF012C063
:100A20001CF009EC04F00F50300FCBEC05F00D502A
:100A3000300FCBEC05F00B50300FCBEC05F009502C
:100A4000300FCBEC05F00750300FCBEC05F0D0D7D2
:100A5000000E186E16AE06D0156C161ED8B0162AEB
:100A6000010E186E14AE06D0136C141ED8B0142AE2
:100A7000010E181A000E1A6E000E196E155016107F
:100A8000D8B41CD0010E176E04D0D8901536163687
:100A9000172A16AEFAD7D89019361A361550135CA5
:100AA00016501458D8A005D01550135E1650145A7D
:100AB0001980D89016321532172EEDD71850D8B4A9
:100AC00004D0196C1A1ED8B01A2A19C013F01AC013
:100AD00014F01200F80E956E8C908C828C84F00EBF
:100AE00000D0E82EFDD783CF13F08C94F00E00D009
:100AF000E82EFDD78C84F00E00D0E82EFDD78C9424
:100B00001350800B136E12D08C84F00E00D0E82EA0
:100B1000FDD783CF13F08C94F00E00D0E82EFDD7D4
:100B20008C84F00E00D0E82EFDD7E9D7800E131884
:100B3000D8A41200E9D78C908C92300E61EC06F0AC
:100B4000200E166E2A0EE82EFED7162EFCD7200E8B
:100B5000166E2A0EE82EFED7162EFCD7300E61EC4C
:100B600006F0F00E00D0E82EFDD7300E61EC06F056
:100B7000200E61EC06F0010EE5EC05F0280EE5EC28
:100B800005F00F0EE5EC05F0060EE5EC05F0010EA4
:100B9000E5EC05F01200146E8C806AEC05F0000E96
:100BA000956EF00E00D0E82EFDD78C928C948C8040
:100BB0001450F00B156E155061EC06F01438F00B64
:100BC000156E155061EC06F01200146E8C906AECF4
:100BD00005F0000E956EF00E00D0E82EFDD78C9239
:100BE0008C948C901450F00B156E155061EC06F03F
:100BF0001438F00B156E155061EC06F01200000E63
:100C00001B6E000E1B6E0FD01B501624196E000EAB
:100C100017201A6E19C0F6FF1AC0F7FF0800F5502A
:100C2000CBEC05F01B2A18501B5CD8B01200ECD797
:100C3000C282C2B2FED7C4CF15F0030E15161550EE
:100C4000166E176A1650176E166AC3501626000ED7
:100C5000172216C013F017C014F01200135015021B
:100C6000F3CF17F0F4CF18F013501602F3501826F4
:100C700014501502F350182617C013F018C014F0C2
:100C80001200176E1704D8A405D01650800FE5EC9B
:100C900005F01200020E1718D8A412001650C00F4B
:100CA000E5EC05F01200166E1650D8A403D00E0E17
:100CB000E5EC05F01604D8A412000C0EE5EC05F0E6
:100CC0001200136E0F0E8C16F00E131613508C12AA
:100CD0008C84F00E00D0E82EFDD78C94120000EE2C
:100CE00001F0120EEE6AE806FDE1000EF86E00015A
:0C0CF000DAEF04F0020EE5EC05F0120053
:020000040020DA
:08000000FFFFFFFFFFFFFFFF00
:020000040030CA
:0E0000000000181EFF8181FF0FC00FE00F40AF
:00000001FF
