:020000040000FA
:04000000CEEF05F04A
:100800000047726162616E646F20454550524F4DE2
:1008100000000F6EC580C5B010EF04F012EF04F0B9
:100820000BEF04F0A00EC96EC7B019EF04F01BEF78
:1008300004F014EF04F0C7B420EF04F022EF04F04A
:100840001BEF04F00FC0C9FFC7B029EF04F02BEF76
:1008500004F024EF04F0C7B430EF04F032EF04F0FA
:100860002BEF04F0C582C5B238EF04F03AEF04F084
:1008700033EF04F0A10EC96EC7B041EF04F043EFAF
:1008800004F03CEF04F0C7B448EF04F04AEF04F082
:1008900043EF04F0C586C7A050EF04F052EF04F018
:1008A0004BEF04F0C9CF10F0C58AC588C5B85BEF1F
:1008B00004F05DEF04F056EF04F0C584C5B463EFB7
:1008C00004F065EF04F05EEF04F010501200116EBA
:1008D000C580C5B06EEF04F070EF04F069EF04F06E
:1008E000A00EC96EC7B077EF04F079EF04F072EF95
:1008F00004F0C7B47EEF04F080EF04F079EF04F069
:1009000011C0C9FFC7B087EF04F089EF04F082EF90
:1009100004F0C7B48EEF04F090EF04F089EF04F018
:100920000FC0C9FFC7B097EF04F099EF04F092EF42
:1009300004F0C7B49EEF04F0A0EF04F099EF04F0C8
:10094000C584C5B4A6EF04F0A8EF04F0A1EF04F04D
:100950009C0E106ED70EE82EFED7102EFCD700F09E
:100960001200FEEC05F020EC06F0000E126E010EF7
:100970007DEC05F0010E126E080E136E0F0E146E54
:100980005EEC05F0000E196E010E1924D96EDA6ABC
:10099000000EDA22DF500F6E1950640F67EC04F07E
:1009A000192A0C0E1964D7EF04F0D9EF04F0C4EF44
:1009B00004F0000E126E020E7DEC05F0000E186EB3
:1009C0001850640F09EC04F01A6E1A50B4EC05F0DC
:1009D000182A0C0E1864EFEF04F0F1EF04F0E0EFCA
:1009E00004F0F1EF04F000EF00F0F80E956E8C903B
:1009F0008C828C84F00E00D0E82EFDD783CF0FF0D0
:100A00008C94F00E00D0E82EFDD78C84F00E00D030
:100A1000E82EFDD78C940F50800B0F6E24EF05F05D
:100A20008C84F00E00D0E82EFDD783CF0FF08C948D
:100A3000F00E00D0E82EFDD78C84F00E00D0E82E0A
:100A4000FDD78C940BEF05F0800E0F18D8B42BEF68
:100A500005F02DEF05F010EF05F012008C908C9250
:100A6000300E12EC06F0200E126E2A0EE82EFED783
:100A7000122EFCD7200E126E2A0EE82EFED7122E52
:100A8000FCD7300E12EC06F0F00E00D0E82EFDD7A9
:100A9000300E12EC06F0200E12EC06F0010E9AEC6D
:100AA00005F0280E9AEC05F00F0E9AEC05F0060EF4
:100AB0009AEC05F0010E9AEC05F01200000E176E8C
:100AC000000E176E73EF05F017501224156E000E0E
:100AD0001320166E15C0F6FF16C0F7FF0800F5507C
:100AE000B4EC05F0172A1450175CD8A07AEF05F083
:100AF0007CEF05F064EF05F01200136E1304D8A428
:100B000084EF05F086EF05F08CEF05F01250800FB2
:100B10009AEC05F099EF05F0020E1318D8A493EFA4
:100B200005F095EF05F099EF05F01250C00F9AEC23
:100B300005F01200106E8C90F5EC04F0000E956E2E
:100B4000F00E00D0E82EFDD78C928C948C90105033
:100B5000F00B116E115012EC06F01038F00B116E04
:100B6000115012EC06F01200106E8C80F5EC04F0BF
:100B7000000E956EF00E00D0E82EFDD78C928C946E
:100B80008C801050F00B116E115012EC06F01038E2
:100B9000F00B116E115012EC06F01200500EF66EB2
:100BA0000C0EF76E000EF86E00EE01F010EE0EF077
:100BB0000900F5CFEEFFE550E150FAE11A6A000EA8
:100BC000F86E080EF76E0001B1EF04F0126E1250CD
:100BD000D8A4EDEF05F0EFEF05F0F2EF05F00E0E03
:100BE0009AEC05F01204D8A4F8EF05F0FAEF05F03E
:100BF000FDEF05F00C0E9AEC05F01200000E956E5C
:100C00002EEC05F0EA0E136EC30EE82EFED7132E5F
:100C1000FCD700F033EC06F02FEC06F0010EE6EC0A
:100C200005F012000F6E0F0E8C16F00E0F160F50FF
:100C30008C128C84F00E00D0E82EFDD78C9412001C
:100C4000C68AC686C694C692C6901D0EC86E12008D
:100C50005A686978696F6E6720204C617500020ED2
:0E0C60009AEC05F01200010E9AEC05F012005D
:020000040020DA
:08000000FFFFFFFFFFFFFFFF00
:020000040030CA
:0E0000000002181EFF8181FF0FC00FE00F40AD
:00000001FF
