:020000040000FA
:0400000070EF06F0A7
:0F080000004C656374757261204144433A0000F7
:100810001BC013F01CC014F0270E166E100E156EC0
:1008200029EC05F013C00FF014C010F00FC013F046
:1008300010C014F0D80E166EF00E156E2FEC06F0E8
:100840001B501324016E1C501420026E01C013F0C3
:1008500002C014F0030E166EE80E156E29EC05F0BA
:1008600013C00DF014C00EF00DC013F00EC014F044
:10087000FC0E166E180E156E2FEC06F001501324A8
:10088000056E02501420066E05C013F006C014F069
:10089000000E166E640E156E29EC05F013C00BF0F9
:1008A00014C00CF00BC013F00CC014F0FF0E166E49
:1008B0009C0E156E2FEC06F005501324036E0650A7
:1008C0001420046E03C013F004C014F0000E166E62
:1008D0000A0E156E29EC05F013C009F014C00AF0D9
:1008E00009C013F00AC014F0FF0E166EF60E156E56
:1008F0002FEC06F003501324076E04501420086EEA
:100900001200156E926896680F0E936E1FD00E0E31
:10091000C16E1544E846FC0BC26E47D00D0EF8D7E9
:100920000C0EF6D70B0EF4D70A0EF2D7090EF0D73D
:10093000080EEED7070EECD7060EEAD7050EE8D75D
:10094000040EE6D7030EE4D7020EE2D71550136E5D
:10095000146A1450000AD8A428D01350000AD8B43E
:10096000D6D7010AD8B4DAD7030AD8B4D9D7010A3E
:10097000D8B4D8D7070AD8B4D7D7010AD8B4D6D7AD
:10098000030AD8B4D5D7010AD8B4D4D70F0AD8B43B
:10099000D3D7010AD8B4D2D7030AD8B4D1D7010A21
:1009A000D8B4D0D7070AD8B4CFD7910EC06EC280C2
:1009B000120094948B84000E956E1F0E1E6E710EA5
:1009C0001D6E1E0EE82EFED71D2EFCD71E2EFAD74A
:1009D00000D09CEC05F0EA0E1D6EC30EE82EFED78B
:1009E0001D2EFCD700F0010E54EC06F0000E81EC39
:1009F00004F07BEC06F0010E166E080E176E0C0E5E
:100A0000186E00EC06F019EC06F013C011F014C0DB
:100A100012F011C01BF012C01CF008EC04F0000E24
:100A2000166E020E42EC06F00F50300FCCEC05F0C3
:100A30000D50300FCCEC05F00B50300FCCEC05F026
:100A40000950300FCCEC05F00750300FCCEC05F01E
:100A5000D0D7000E186E16AE06D0156C161ED8B084
:100A6000162A010E186E14AE06D0136C141ED8B0E0
:100A7000142A010E181A000E1A6E000E196E155067
:100A80001610D8B41CD0010E176E04D0D8901536AD
:100A90001636172A16AEFAD7D89019361A361550C8
:100AA000135C16501458D8A005D01550135E16507C
:100AB000145A1980D89016321532172EEDD71850C7
:100AC000D8B404D0196C1A1ED8B01A2A19C013F061
:100AD0001AC014F01200F80E956E8C908C828C84E3
:100AE000F00E00D0E82EFDD783CF13F08C94F00EDB
:100AF00000D0E82EFDD78C84F00E00D0E82EFDD774
:100B00008C941350800B136E12D08C84F00E00D096
:100B1000E82EFDD783CF13F08C94F00E00D0E82E92
:100B2000FDD78C84F00E00D0E82EFDD7E9D7800EDB
:100B30001318D8A41200E9D78C908C92300E62EC76
:100B400006F0200E166E2A0EE82EFED7162EFCD7C3
:100B5000200E166E2A0EE82EFED7162EFCD7300E6B
:100B600062EC06F0F00E00D0E82EFDD7300E62ECFD
:100B700006F0200E62EC06F0010EE6EC05F0280E01
:100B8000E6EC05F00F0EE6EC05F0060EE6EC05F0DF
:100B9000010EE6EC05F01200146E8C806BEC05F093
:100BA000000E956EF00E00D0E82EFDD78C928C943E
:100BB0008C801450F00B156E155062EC06F0143852
:100BC000F00B156E155062EC06F01200146E8C904E
:100BD0006BEC05F0000E956EF00E00D0E82EFDD700
:100BE0008C928C948C901450F00B156E155062EC16
:100BF00006F01438F00B156E155062EC06F012007A
:100C0000000E1B6E000E1B6E0FD01B501624196EAB
:100C1000000E17201A6E19C0F6FF1AC0F7FF080061
:100C2000F550CCEC05F01B2A18501B5CD8B0120014
:100C3000ECD7C282C2B2FED7C4CF15F0030E151690
:100C40001550166E176A1650176E166AC350162680
:100C5000000E172216C013F017C014F01200135024
:100C60001502F3CF17F0F4CF18F013501602F3501B
:100C7000182614501502F350182617C013F018C088
:100C800014F01200176E1704D8A405D01650800F68
:100C9000E6EC05F01200020E1718D8A41200165048
:100CA000C00FE6EC05F01200166E1650D8A403D063
:100CB0000E0EE6EC05F01604D8A412000C0EE6ECBD
:100CC00005F01200136E0F0E8C16F00E1316135053
:100CD0008C128C84F00E00D0E82EFDD78C9412007C
:100CE00000EE01F0120EEE6AE806FDE1000EF86E6D
:0E0CF0000001D9EF04F0020EE6EC05F0120050
:020000040020DA
:08000000FFFFFFFFFFFFFFFF00
:020000040030CA
:0E0000000002181EFF8181FF0FC00FE00F40AD
:00000001FF
