:020000040000FA
:0400000010EF00F00D
:020004000000FA
:0400080043EF00F0D2
:10002000800E956EF00E936E8A6A030EF76E000EC8
:10003000F66E810ED56EA00EF26E006A00C0F6FF5D
:100040000900F5CF8CFF8A803EEC00F08A90090011
:10005000F5CF8CFF8A823EEC00F08A920900F5CF42
:100060008CFF8A843EEC00F08A940900F5CF8CFF67
:100070008A863EEC00F08A961EEF00F00000000039
:100080000000000012000B0ED76EDC0ED66E0E0EB6
:1000900000624EEF00F0006A4FEF00F0002AF29489
:0200A00010004E
:100300000000000006546F7954067950067700000B
:020310000000EB
:020000040030CA
:0100000000FF
:0100010000FE
:0100020018E5
:010003001EDE
:010005008179
:010006008178
:00000001FF
