:040000006BEF07F0AB
:1005000000486179204572726F72212100546F6436
:100510006F204F4B2100252054656D703A005072BA
:10052000756562610052483A00008AEC06F01E0EC2
:10053000046E050E056E060E066EA9EC06F0000EA2
:10054000216E2E0E00EC07F00D0E1E6E2D0E1D6E90
:10055000D80EE82EFED71D2EFCD71E2EFAD7212A44
:10056000090E2164B6EF02F0B8EF02F0A1EF02F03D
:10057000010E046E020EC8EC06F00D0E046E050EA0
:10058000056E080E066EA9EC06F0B70E1E6EA10EE3
:100590001D6EC40EE82EFED71D2EFCD71E2EFAD7D8
:1005A0007CEC07F049EC07F033EC07F05AEC06F06E
:1005B0002D6E5AEC06F02C6E5AEC06F02B6E5AECAF
:1005C00006F02A6E5AEC06F0296E78EC07F0250E3C
:1005D000046E050E056E030E066EA9EC06F02D5096
:1005E000F2EC05F02750300F00EC07F02650300FEA
:1005F00000EC07F0160E046E050E056E070E066E73
:10060000A9EC06F02B50F2EC05F02750300F00EC6F
:1006100007F02650300F00EC07F0DF0E00EC07F07B
:10062000430E00EC07F0000E0A6E050E096E2B500B
:10063000090DF3CF07F0F4CF08F0F9EC04F0200E29
:100640000726000E082207C00FF008C010F0000EA9
:1006500010BEFF0E116E126E010E9CEC03F00FC067
:1006600022F010C023F011C024F012C025F0060EB5
:10067000046E020EC8EC06F0180E046E050E056E30
:10068000050E066EA9EC06F022C001F023C002F0B0
:1006900024C003F025C004F076EC04F00150F2EC25
:1006A00005F02850300F00EC07F02750300F00EC19
:1006B00007F02650300F00EC07F0DF0E00EC07F0DB
:1006C000460E00EC07F029501D6E1E6A2C502DC0FE
:1006D0001FF0206A1F26000E20222B501F26000E1E
:1006E00020222A501F26000E20221D501F1809E12B
:1006F0001E502018D8B47FEF03F081EF03F08DEF88
:1007000003F07CEC07F078EC07F0010E046E050EA8
:10071000056E0B0E066EA9EC06F03D0E1E6EE10E88
:100720001D6E400EE82EFED71D2EFCD71E2EFAD7CA
:10073000D2EF02F000EF00F0176E1750D8B4A3EF1D
:1007400003F0A5EF03F0C7EF03F012BEACEF03F028
:10075000AAEF03F0C7EF03F00FC013F010C014F0BE
:1007600011C015F012C016F0131E141E151E161E11
:10077000132A000E14221522162213C019F014C0D9
:100780001AF015C01BF016C01CF0CFEF03F00FC01D
:1007900019F010C01AF011C01BF012C01CF00F505D
:1007A000101011101210D8A4D8EF03F0DAEF03F0F4
:1007B000E4EF03F0000E0F6E000E106E000E116ECF
:1007C000000E126E75EF04F0960E186EEEEF03F049
:1007D000182AD8901C321B321A321932000E191402
:1007E000136E000E1A14146E000E1B14156EFE0EFE
:1007F0001C14166E1350141015101610D8A403EF05
:1008000004F005EF04F0E8EF03F013EF04F0182A0A
:10081000010E1926000E1A221B221C22D8901C320F
:100820001B321A321932000E1914136E000E1A14EC
:10083000146E000E1B14156EFF0E1C14166E135052
:10084000141015101610D8A428EF04F02AEF04F0A5
:1008500007EF04F032EF04F01806D89019361A3674
:100860001B361C361BBE37EF04F039EF04F041EFA6
:1008700004F0020E18603FEF04F041EF04F02CEF9B
:1008800004F018B046EF04F048EF04F049EF04F02C
:100890001B9ED890183218C013F0146A156A166A95
:1008A00013C016F0156A146A136A13501912145003
:1008B0001A1215501B1216501C121750D8B463EFA1
:1008C00004F065EF04F06DEF04F012BE6CEF04F07D
:1008D0006AEF04F06DEF04F01C8E19C00FF01AC01F
:1008E00010F01BC011F01CC012F0120003340434CD
:1008F0000A6E0A50D8A47FEF04F081EF04F08BEF6A
:1009000004F0000E016E000E026E000E036E000E6B
:10091000046EF8EF04F001C005F002C006F003C059
:1009200007F004C008F0200E9BEF04F0D8900832C6
:10093000073206320532E82E96EF04F00550096EB4
:10094000038EFF0E0116FF0E0216FF0E0316000E99
:100950000416960E0A5E0ABEB2EF04F0B0EF04F081
:10096000C8EF04F00A50800A970FD8B0BAEF04F02D
:10097000BCEF04F0BEEF04F081EF04F0D890043235
:100980000332023201320A3EBEEF04F0E0EF04F01F
:100990001F0E0A64CEEF04F0D0EF04F0D8EF04F09D
:1009A00081EF04F0D89001360236033604360A0689
:1009B0000A50D8A4DEEF04F0E0EF04F0D2EF04F028
:1009C0000950D8B4E6EF04F0E8EF04F0F0EF04F0DB
:1009D000041E031E021E016C000E022203220422CA
:1009E00001C001F002C002F003C003F004C004F033
:1009F0001200000E0C6E0ABE02EF05F000EF05F0CB
:100A000008EF05F0096C0A1ED8B00A2A010E0C6E18
:100A100008BE0FEF05F00DEF05F015EF05F0076CC0
:100A2000081ED8B0082A010E0C1A000E0E6E000E19
:100A30000D6E09500A10D8B420EF05F022EF05F032
:100A40004AEF05F0010E0B6E2AEF05F0D89009363B
:100A50000A360B2A0AAE2FEF05F031EF05F026EF2C
:100A600005F0D8900D360E360950075C0A5008582C
:100A7000D8A03DEF05F03FEF05F044EF05F0095039
:100A8000075E0A50085A0D80D8900A3209320B2EA0
:100A900031EF05F00C50D8B450EF05F052EF05F0EF
:100AA00056EF05F00D6C0E1ED8B00E2A0DC007F0E3
:100AB0000EC008F01200000E066E02BE64EF05F0D4
:100AC00062EF05F06AEF05F0016C021ED8B0022A51
:100AD000010E066E04BE71EF05F06FEF05F075EFC5
:100AE00005F0036C041ED8B0042A03500410D8B4D7
:100AF0007CEF05F07EEF05F0A2EF05F0010E056E2C
:100B000086EF05F0D89003360436052A04AE8BEF45
:100B100005F08DEF05F082EF05F00350015C045005
:100B20000258D8A096EF05F098EF05F09CEF05F07D
:100B30000350015E0450025AD89004320332052E4D
:100B40008DEF05F00650D8B4A8EF05F0AAEF05F038
:100B5000AEEF05F0016C021ED8B0022A01C001F010
:100B600002C002F01200F80E956E8C908C828C847C
:100B7000F00E00F000F0E82EFCD783CF01F08C944B
:100B8000F00E00F000F0E82EFCD78C84F00E00F0A0
:100B900000F0E82EFCD78C940150800B016EE8EF3A
:100BA00005F08C84F00E00F000F0E82EFCD783CF27
:100BB00001F08C94F00E00F000F0E82EFCD78C844D
:100BC000F00E00F000F0E82EFCD78C94CCEF05F08E
:100BD000800E0118D8B4EFEF05F0F1EF05F0D1EF7A
:100BE00005F012000F6E030E046EE80E036E0FC0C8
:100BF00001F0026A5BEC05F001C007F002C008F0EA
:100C0000000E0A6E640E096EF9EC04F00750286EAF
:100C1000000E046E640E036E0FC001F0026A5BECFE
:100C200005F001C007F002C008F0000E0A6E0A0EBF
:100C3000096EF9EC04F00750276E0FC001F0026A4C
:100C4000000E046E0A0E036E5BEC05F00150266E7A
:100C500012008C908C92300E5CEC07F0200E046E2B
:100C60002A0EE82EFED7042EFCD7200E046E2A0E84
:100C7000E82EFED7042EFCD7300E5CEC07F0F00E09
:100C800000F000F0E82EFCD7300E5CEC07F0200EF0
:100C90005CEC07F0010EE5EC06F0280EE5EC06F042
:100CA0000F0EE5EC06F0060EE5EC06F0010EE5ECA5
:100CB00006F01200000E016E000E026E000E016EB4
:100CC00081A065EF06F067EF06F060EF06F0780EA2
:100CD000E82EFED781A06FEF06F071EF06F075EFFA
:100CE00006F0D880023678EF06F002500224026E39
:100CF00081B07DEF06F07FEF06F078EF06F0012A75
:100D0000070E016486EF06F088EF06F060EF06F04C
:100D100002501200000E956E040E066E0C0E056E4B
:100D2000340EE82EFED7052EFCD7062EFAD729EC76
:100D300006F0EA0E056EC30EE82EFED7052EFCD790
:100D400000F07CEC07F078EC07F0010E1BEC07F0EC
:100D50001200000E096E000E096EBEEF06F009507B
:100D60000424076E000E0520086E07C0F6FF08C0B9
:100D7000F7FF0800F55000EC07F0092A0650095C5F
:100D8000D8A0C5EF06F0C7EF06F0AFEF06F01200EF
:100D9000056E0504D8A4CFEF06F0D1EF06F0D7EF2B
:100DA00006F00450800FE5EC06F0E4EF06F0020ECA
:100DB0000518D8A4DEEF06F0E0EF06F0E4EF06F049
:100DC0000450C00FE5EC06F01200026E8C90B3ECFC
:100DD00005F0000E956EF00E00F000F0E82EFCD746
:100DE0008C928C948C900250F00B036E03505CEC50
:100DF00007F00238F00B036E03505CEC07F01200B2
:100E0000026E8C80B3EC05F0000E956EF00E00F0D3
:100E100000F0E82EFCD78C928C948C800250F00B62
:100E2000036E03505CEC07F00238F00B036E0350C6
:100E30005CEC07F01200046E0450D8A422EF07F017
:100E400024EF07F027EF07F00E0EE5EC06F00404A0
:100E5000D8A42DEF07F02FEF07F032EF07F00C0EBC
:100E6000E5EC06F0120081B038EF07F03AEF07F03A
:100E700033EF07F081A03FEF07F041EF07F03AEFC3
:100E800007F081B046EF07F048EF07F041EF07F0B9
:100E9000120093908A90020E026E190E016E820E5D
:100EA000E82EFED7012EFCD7022EFAD78A80500EEC
:100EB000E82EFED793801200016E0F0E8C16F00EF6
:100EC000011601508C128C84F00E00F000F0E82E18
:100ED000FCD78C94120000EE22F00C0EEE6AE806AD
:100EE000FDE1000EF86E050EF76E000195EF02F0C1
:100EF000020EE5EC06F01200010EE5EC06F0120021
:020000040020DA
:08000000FFFFFFFFFFFFFFFF00
:020000040030CA
:0E0000000002181EFF8081FF034003600340D2
:00000001FF
