:020000040000FA
:0400000007EF00F016
:100008002B8246ED00F0AFEF00F0ECEC00F0170E9D
:100018000F6E000E106E220E116E000E126EC6ECE0
:1000280000F0000E166E000E156E170E1524D96E10
:10003800000E1620DA6EDF50AD6EACA226EF00F08F
:1000480028EF00F021EF00F0154A162A165009E1B2
:10005800120E155CD8A033EF00F035EF00F019EF61
:1000680000F03D0E146EE10E136E400EE82EFED722
:10007800132EFCD7142EFAD7D9EC00F015EF00F0A8
:1000880007EF00F006009E9A56EF00F08D8073EFA0
:1000980000F08D9073EF00F08D8273EF00F08D9279
:1000A80073EF00F0AE50016E026A0250000AD8B435
:1000B80060EF00F073EF00F00150410AD8B44AEF46
:1000C80000F0030AD8B44DEF00F0010AD8B450EF9D
:1000D80000F0070AD8B453EF00F073EF00F02B924A
:1000E800110009C00BF00AC00CF007C00DF008C0E1
:1000F8000EF00BC0D9FF0CC0DAFF0B4A0C2A0DC05A
:10010800E1FF0EC0E2FF0D4A0E2ADFCFE7FFE750FE
:10011800D8A491EF00F093EF00F07DEF00F012000B
:1001280003C005F004C006F09CEF00F0034A042A5F
:1001380003C0D9FF04C0DAFFDF50D8A4A6EF00F04F
:10014800A8EF00F09AEF00F00550035C036E06502C
:100158000458046E1200FE0EF66E010EF76E000EC5
:10016800F86E00EE17F010EE14F00900F5CFEEFF70
:10017800E550E150FAE12B902B92000EF86E000149
:1001880009EF00F00FC003F010C004F094EC00F089
:1001980003500F24076E04501020086E11C009F098
:1001A80012C00AF075EC00F012000A0EAD6EACA297
:1001B800E0EF00F0E2EF00F0DBEF00F00D0EAD6EC7
:1001C800ACA2E9EF00F0EBEF00F0E4EF00F0120072
:1001D800B886AC84AC98040EB06EE10EAF6EAB8EF0
:1001E800AC8A949CAB889D8AF28CF28E0F0EC16EFD
:1001F800969096921200486F6C61206D756E646FD0
:0A0208000020706F6C6C69746F00C9
:020000040020DA
:08000000FFFFFFFFFFFFFFFF00
:020000040030CA
:0E0000000002181EFF8181FF0FC00FE00F40AD
:00000001FF
