:0400000002EF06F015
:10080000005445524D4F54524F4E205550430050C6
:100810004F54454E433A0000D388D38AD38C000E00
:10082000956E240EC06E1E0EC16E010EC26EC00EFD
:10083000B56E40EC05F01A0E0A6EF80EE82EFED7E3
:100840000A2EFCD700D013EC06F0010EE6EC05F002
:100850000FEC06F0010E046E080E056E0D0E066E0E
:1008600070EC05F0000E046E020ED4EC05F00F0ED5
:10087000046E080E056E070E066E70EC05F0C2B22F
:1008800004D0C4CF0CF00D6AC2820CC001F00DC0C0
:1008900002F0000E046E020E036ECCEC04F001C0F8
:1008A0000CF002C00DF087EC04F0080E046E020E8E
:1008B000D4EC05F01050300F8DEC05F01250300FD5
:1008C0008DEC05F01450300F8DEC05F0DF0E8DEC43
:1008D00005F0430E8DEC05F08C86020E0B6E040EB7
:1008E0000A6EBA0EE82EFED70A2EFCD70B2EFAD7C8
:1008F00000D08C96020E0B6E040E0A6EBA0EE82E15
:10090000FED70A2EFCD70B2EFAD700D0B8D70CC0D2
:1009100001F00DC002F0000E046E640E036ECCEC0C
:1009200004F001C010F002C011F010C001F011C0BD
:1009300002F0000E046E640E036EC1EC05F0011EA1
:10094000021E014A022A0C5001240E6E0D50022094
:100950000F6E0EC001F00FC002F0000E046E0A0E02
:10096000036ECCEC04F001C012F002C013F012C010
:1009700001F013C002F0000E046E0A0E036EC1EC0B
:1009800005F0011E021E014A022A0E500124146EB7
:100990000F500220156E1200000E066E04AE06D037
:1009A000036C041ED8B0042A010E066E02AE06D0F7
:1009B000016C021ED8B0022A010E061A000E086E43
:1009C000000E076E03500410D8B41CD0010E056E43
:1009D00004D0D89003360436052A04AEFAD7D8904E
:1009E000073608360350015C04500258D8A005D0E1
:1009F0000350015E0450025A0780D890043203323B
:100A0000052EEDD70650D8B404D0076C081ED8B018
:100A1000082A07C001F008C002F01200F80E956E17
:100A20008C908C828C84F00E00D0E82EFDD783CF82
:100A300001F08C94F00E00D0E82EFDD78C84F00EDF
:100A400000D0E82EFDD715D00150800B016E13D0D9
:100A50008C84F00E00D0E82EFDD783CF01F08C946B
:100A6000F00E00D0E82EFDD78C84F00E00D0E82EDA
:100A7000FDD78C94E9D7800E0118D8A41200E8D7CE
:100A80008C908C92300EF4EC05F0200E046E2A0E41
:100A9000E82EFED7042EFCD7200E046E2A0EE82E78
:100AA000FED7042EFCD7300EF4EC05F0F00E00D08B
:100AB000E82EFDD7300EF4EC05F0200EF4EC05F036
:100AC000010EA7EC05F0280EA7EC05F00F0EA7EC21
:100AD00005F0060EA7EC05F0010EA7EC05F01200DC
:100AE000000E096E000E096E13D00950010D04C0EE
:100AF00007F005C008F0F3500726F450082207C09D
:100B0000F6FF08C0F7FF0800F5508DEC05F0092A44
:100B10000650095CD8B01200E8D7026E8C800EEC4B
:100B200005F0000E956EF00E00D0E82EFDD78C92E9
:100B30008C948C800250F00B036E0350F4EC05F0A3
:100B40000238F00B036E0350F4EC05F01200026E55
:100B50008C900EEC05F0000E956EF00E00D0E82E95
:100B6000FDD78C928C948C900250F00B036E035046
:100B7000F4EC05F00238F00B036E0350F4EC05F0D2
:100B8000120001500302F3CF05F0F4CF06F001503C
:100B90000402F350062602500302F350062605C055
:100BA00001F006C002F01200056E0504D8A405D0BD
:100BB0000450800FA7EC05F01200020E0518D8A40F
:100BC00012000450C00FA7EC05F01200046E045090
:100BD000D8A403D00E0EA7EC05F00404D8A412008C
:100BE0000C0EA7EC05F01200016E0F0E8C16F00E25
:100BF000011601508C128C84F00E00D0E82EFDD727
:100C00008C94120000EE0CF00A0EEE6AE806FDE18C
:100C1000000EF86E080EF76E00010CEF04F0020EE5
:0E0C2000A7EC05F01200010EA7EC05F0120083
:020000040020DA
:08000000FFFFFFFFFFFFFFFF00
:020000040030CA
:0E0000000008181EFF8281FF0FC00FE00F40A6
:00000001FF
