:0400000007EF00F016
:0A00080043828DED08F000EF0AF0CE
:100800000053656D2031342046696E616C6500448B
:100810006973743A20002520543A0052483A002067
:10082000636D00000650800B0F6E06500624156E97
:1008300005AE1DEF04F01FEF04F020EF04F015806B
:100840001550D8B426EF04F028EF04F03BEF04F085
:100850001528D8A42EEF04F030EF04F038EF04F0A0
:10086000000E036E000E046E000E056E000E066E86
:10087000058E43EF04F0000E036E000E046E000EB2
:10088000056E000E066E0A50800B0F1A0A500A24DD
:10089000146E09AE4EEF04F050EF04F051EF04F087
:1008A00014801450D8B457EF04F059EF04F06CEFF3
:1008B00004F01428D8A45FEF04F061EF04F069EFAE
:1008C00004F0000E076E000E086E000E096E000E9A
:1008D0000A6E098E74EF04F0000E076E000E086EAB
:1008E000000E096E000E0A6E1450D8B47AEF04F0B0
:1008F0007CEF04F084EF04F01550D8A482EF04F0EC
:1009000084EF04F08EEF04F0000E036E000E046E10
:10091000000E056E000E066E26EF06F0095003026B
:10092000F3CF1AF0F4CF1BF01A50106E116A126A4E
:10093000136A1B50166E176A186A196A0850040267
:10094000F3CF1AF0F4CF1BF01A501026000E11222C
:10095000122213221B501626000E172218221922CB
:1009600007500502F3CF1AF0F4CF1BF01A501026EF
:10097000000E1122122213221B501626000E1722DF
:100980001822192212C013F011C012F010C011F079
:10099000106A07500402F3CF1AF0F4CF1BF01A507C
:1009A00010261B501122000E1222000E1322085096
:1009B0000302F3CF1AF0F4CF1BF01A5010261B508D
:1009C0001122000E1222000E132212C013F011C0C9
:1009D00012F010C011F0106A07500302F3CF1AF0A2
:1009E000F4CF1BF01A5010261B501122000E1222B9
:1009F000000E132209500402F3CF1AF0F4CF1BF0BB
:100A00001A5016261B501722000E1822000E19220B
:100A100008500502F3CF1AF0F4CF1BF01A50162637
:100A20001B501722000E1822000E19220950050231
:100A3000F3CF1AF0F4CF1BF01A500B6E1B500C6E54
:100A40000D6A0E6A0DC00EF00CC00DF00BC00CF05C
:100A50000B6A0B5016260C5017220D5018220E5000
:100A6000192210C00BF011C00CF012C00DF013C011
:100A70000EF0190E41EF05F0D8900E320D320C3207
:100A80000B32E82E3CEF05F00B5016260C501722C7
:100A90000D5018220E50192212C013F011C012F07E
:100AA00010C011F0106A145015C00BF00C6A0B2620
:100AB000000E0C22820E0B241A6EFF0E0C201B6EF1
:100AC00077EF05F0D890163617361836193613AE6C
:100AD0006CEF05F06EEF05F06FEF05F01680D89023
:100AE00010361136123613361A06D8A01B0618AE69
:100AF0007CEF05F07EEF05F062EF05F0000E146E5E
:100B000013AE85EF05F087EF05F0ABEF05F0FF0EB4
:100B100010140B6EFF0E11140C6EFF0E12140D6EDE
:100B20007F0E13140E6E0B500C100D100E10D8B457
:100B30009CEF05F09EEF05F0A2EF05F0010E146E9C
:100B4000ABEF05F016A0A7EF05F0A9EF05F0ABEFAE
:100B500005F09EEF05F01450D8B4B1EF05F0B3EFF7
:100B600005F0D7EF05F0010E1626000E1722182209
:100B7000192219A0BEEF05F0C0EF05F0D7EF05F080
:100B800016C00BF017C00CF018C00DF019C00EF015
:100B90000E340E320D320C320B320BC016F00CC07C
:100BA00017F00DC018F00EC019F01A4A1B2A1BBE10
:100BB000E2EF05F01B5008E11A28D8A0E2EF05F09B
:100BC000E4EF05F0EEEF05F0000E166E000E176E66
:100BD000800E186E7F0E196E1CEF06F01BBEFBEF29
:100BE00005F01B5006E11A04D8B0F9EF05F0FBEF51
:100BF00005F007EF06F0000E166E000E176E000EE1
:100C0000186E000E196E000E0F6E1CEF06F01AC063
:100C100015F0FF0E1616FF0E17167F0E1816000E93
:100C2000191615A016EF06F018EF06F019EF06F0EA
:100C3000188ED8901530196E0F50191216C003F087
:100C400017C004F018C005F019C006F0120086ECB9
:100C50000AF0A0EC09F0000E066E010E1DEC0AF081
:100C6000010E066E080E076E0D0E086EC3EC09F03D
:100C700015EF07F08D80060EE82EFED700D08D9080
:100C8000020E426E15EF07F038C003F039C004F0D1
:100C9000056A066A000E30EC07F003C034F004C0A9
:100CA00035F005C036F006C037F0000E076E000EB6
:100CB000086E000E096E410E0A6E34C003F035C096
:100CC00004F036C005F037C006F012EC04F003C0A3
:100CD0001EF004C01FF005C020F006C021F01EC0A9
:100CE00003F01FC004F020C005F021C006F0310E53
:100CF000076E990E086EAA0E096E3D0E0A6E12EC72
:100D000004F003C034F004C035F005C036F006C06E
:100D100037F034C003F035C004F036C005F037C0FA
:100D200006F0960E076E430E086E8B0E096E3C0E93
:100D30000A6E12EC04F003C034F004C035F005C0B4
:100D400036F006C037F034C003F035C004F036C0CA
:100D500005F037C006F00AEC08F003C038F004C014
:100D600039F0050E426E15EF07F0000E066E020E0A
:100D70001DEC0AF00F0E066E080E076E060E086ECA
:100D8000C3EC09F038C008F039C009F0000E0B6E52
:100D9000640E0A6ECBEC08F00850300F54EC0AF0E9
:100DA000000E066E640E056E38C003F039C004F004
:100DB0003EEC09F003C008F004C009F0000E0B6E11
:100DC0000A0E0A6ECBEC08F00850300F54EC0AF013
:100DD000000E066E640E056E38C003F039C004F0D4
:100DE0003EEC09F003C022F004C023F022C003F05F
:100DF00023C004F0000E066E0A0E056E3EEC09F0EC
:100E00000350300F54EC0AF01F0E066E080E076EEA
:100E1000030E086EC3EC09F0340E1C6EF20EE82EC1
:100E2000FED71C2EFCD7010E426E42501C6E1D6A6E
:100E30001D50000AD8B41FEF07F015EF07F01C5043
:100E4000010AD8B43AEF06F0050AD8B444EF06F028
:100E5000010AD8B4B5EF06F015EF07F007EF00F080
:100E60000B6E0B50D8B437EF07F039EF07F05BEF9C
:100E700007F006BE40EF07F03EEF07F05BEF07F02C
:100E800003C007F004C008F005C009F006C00AF06E
:100E9000071E081E091E0A1E072A000E0822092224
:100EA0000A2207C00DF008C00EF009C00FF00AC0FA
:100EB00010F063EF07F003C00DF004C00EF005C0A2
:100EC0000FF006C010F00350041005100610D8A44F
:100ED0006CEF07F06EEF07F078EF07F0000E036E8F
:100EE000000E046E000E056E000E066E09EF08F08F
:100EF000960E0C6E82EF07F00C2AD89010320F324B
:100F00000E320D32000E0D14076E000E0E14086E18
:100F1000000E0F14096EFE0E10140A6E0750081012
:100F200009100A10D8A497EF07F099EF07F07CEFAB
:100F300007F0A7EF07F00C2A010E0D26000E0E2277
:100F40000F221022D89010320F320E320D32000EC6
:100F50000D14076E000E0E14086E000E0F14096EAD
:100F6000FF0E10140A6E0750081009100A10D8A4BA
:100F7000BCEF07F0BEEF07F09BEF07F0C6EF07F0FE
:100F80000C06D8900D360E360F3610360FBECBEF4E
:100F900007F0CDEF07F0D5EF07F0020E0C60D3EFAE
:100FA00007F0D5EF07F0C0EF07F00CB0DAEF07F06D
:100FB000DCEF07F0DDEF07F00F9ED8900C320CC08D
:100FC00007F0086A096A0A6A07C00AF0096A086A2B
:100FD000076A07500D1208500E1209500F120A50DE
:100FE00010120B50D8B4F7EF07F0F9EF07F001EF4C
:100FF00008F006BE00EF08F0FEEF07F001EF08F082
:10100000108E0DC003F00EC004F00FC005F010C02C
:1010100006F01200053406340C6E0C50D8A413EF01
:1010200008F015EF08F01FEF08F0000E036E000E39
:10103000046E000E056E000E066E8CEF08F003C005
:1010400007F004C008F005C009F006C00AF0200E41
:101050002FEF08F0D8900A32093208320732E82E12
:101060002AEF08F007500B6E058EFF0E0316FF0ED9
:101070000416FF0E0516000E0616960E0C5E0CBE2C
:1010800046EF08F044EF08F05CEF08F00C50800ADF
:10109000970FD8B04EEF08F050EF08F052EF08F07D
:1010A00015EF08F0D89006320532043203320C3EB8
:1010B00052EF08F074EF08F01F0E0C6462EF08F0B6
:1010C00064EF08F06CEF08F015EF08F0D8900336E5
:1010D0000436053606360C060C50D8A472EF08F01C
:1010E00074EF08F066EF08F00B50D8B47AEF08F010
:1010F0007CEF08F084EF08F0061E051E041E036C4A
:10110000000E04220522062203C003F004C004F0EE
:1011100005C005F006C006F0120006009EA493EF7D
:1011200008F095EF08F0C1EF08F09E94ACEF08F0DE
:10113000000ECF6E000ECE6E040EBD6E030E426E1C
:10114000C9EF08F0BECF38F0BFCF39F0040E426EC1
:10115000050EBD6EC9EF08F04250016E026A0250E2
:10116000000AD8B4B6EF08F0C9EF08F00150020A3F
:10117000D8B498EF08F0010AD8B4A2EF08F0C9EF8C
:1011800008F09EA0C6EF08F0C8EF08F0C9EF08F01D
:101190009E9043921100000E0D6E000E0C6E0A50D0
:1011A0000B10D8B4D6EF08F0D8EF08F000EF09F034
:1011B000010E0E6EE0EF08F0D8900A360B360E2ABC
:1011C0000BAEE5EF08F0E7EF08F0DCEF08F0D890A1
:1011D0000C360D360A50085C0B500958D8A0F3EFB6
:1011E00008F0F5EF08F0FAEF08F00A50085E0B502F
:1011F000095A0C80D8900B320A320E2EE7EF08F015
:101200000CC008F00DC009F01200F80E956E8C901D
:101210008C828C84F00E00D0E82EFDD783CF03F0B3
:101220008C94F00E00D0E82EFDD78C84F00E00D008
:10123000E82EFDD78C940350800B036E34EF09F039
:101240008C84F00E00D0E82EFDD783CF03F08C9471
:10125000F00E00D0E82EFDD78C84F00E00D0E82EE2
:10126000FDD78C941BEF09F0800E0318D8B43BEF28
:1012700009F03DEF09F020EF09F0120005500610CB
:10128000D8B445EF09F047EF09F06BEF09F0010E14
:10129000076E4FEF09F0D89005360636072A06AEDE
:1012A00054EF09F056EF09F04BEF09F00550035CDD
:1012B00006500458D8A05FEF09F061EF09F065EF20
:1012C00009F00550035E0650045AD89006320532E4
:1012D000072E56EF09F003C003F004C004F012001B
:1012E0008C908C92300E9AEC0AF0200E066E2A0E2C
:1012F000E82EFED7062EFCD7200E066E2A0EE82E0C
:10130000FED7062EFCD7300E9AEC0AF0F00E00D075
:10131000E82EFDD7300E9AEC0AF0200E9AEC0AF077
:10132000010E3AEC0AF0280E3AEC0AF00F0E3AECF5
:101330000AF0060E3AEC0AF0010E3AEC0AF012003E
:10134000000E956E70EC09F02A0E0A6E8E0EE82ED5
:10135000FED70A2EFCD7B4EC0AF0B0EC0AF0010E6E
:101360006EEC0AF02C0E066E000E076E000E086E74
:10137000E2EC09F0240E066E000E076E010E086EF8
:10138000E2EC09F01200000E0B6E000E0B6ED8EFAF
:1013900009F00B500624096E000E07200A6E09C0E2
:1013A000F6FF0AC0F7FF0800F55054EC0AF00B2ACC
:1013B00008500B5CD8A0DFEF09F0E1EF09F0C9EFAE
:1013C00009F012000850080DF350400F3AEC0AF0F3
:1013D000000E096E09500624D96E000E0720DA6E41
:1013E000DF5054EC0AF0092A070E0964FAEF09F0FD
:1013F000FCEF09F0EAEF09F0800E3AEC0AF0120077
:10140000500EF66E150EF76E000EF86E00EE24F01C
:1014100010EE10F00900F5CFEEFFE550E150FAE1D3
:1014200000EE34F00E0EEE6AE806FDE143904392C2
:10143000000EF86E000127EF06F0076E0704D8A42F
:1014400024EF0AF026EF0AF02CEF0AF00650800F86
:101450003AEC0AF039EF0AF0020E0718D8A433EF7D
:101460000AF035EF0AF039EF0AF00650C00F3AECF7
:101470000AF01200046E8C9005EC09F0000E956ED7
:10148000F00E00D0E82EFDD78C928C948C900450F6
:10149000F00B056E05509AEC0AF00438F00B056E5F
:1014A00005509AEC0AF01200046E8C8005EC09F0ED
:1014B000000E956EF00E00D0E82EFDD78C928C9425
:1014C0008C800450F00B056E05509AEC0AF004383D
:1014D000F00B056E05509AEC0AF01200066E0650ED
:1014E000D8A475EF0AF077EF0AF07AEF0AF00E0E43
:1014F0003AEC0AF00604D8A480EF0AF082EF0AF072
:1015000085EF0AF00C0E3AEC0AF01200720ED36E60
:101510000F0EC16E94928B828A8696908D90050EE6
:10152000BD6E910ECD6EF28EF28C9D809D84010E6B
:10153000426E1200036E0F0E8C16F00E031603504F
:101540008C128C84F00E00D0E82EFDD78C94120003
:101550001F1515001F050D171F111F001F0C0A1165
:10156000020E3AEC0AF01200010E3AEC0AF01200F8
:020000040020DA
:08000000FFFFFFFFFFFFFFFF00
:020000040030CA
:0E0000000008181EFF8181FF0FC00FE00F40A7
:00000001FF
