:0400000007EF00F016
:0A00080025822FED05F086EF06F0CB
:10080000005550432053656D313420004320524839
:100810003A006C74696D6F00543A00006FEC07F099
:10082000DDEC06F0000E066E010EA3EC06F0010EE4
:10083000076E080E086E43EC06F0000E12EC07F08F
:10084000120E076E080E086E43EC06F05AEC07F025
:1008500044EC07F0E8EC05F0196EE8EC05F0186ED2
:10086000E8EC05F01B6EE8EC05F01A6EE8EC05F01C
:10087000176E000E066E020EA3EC06F0180E076E41
:10088000080E086E43EC06F01B5016EC06F01550EF
:10089000300F12EC07F01450300F12EC07F0DF0E9F
:1008A00012EC07F00C0E076E080E086E43EC06F013
:1008B000195016EC06F01550300F12EC07F01450DA
:1008C000300F12EC07F0250E12EC07F0100E136E2D
:1008D000390E126E0E0EE82EFED7122EFCD7132EF6
:1008E000FAD726EF04F007EF00F0000E0E6E0CBEF4
:1008F0007EEF04F07CEF04F084EF04F00B6C0C1E30
:10090000D8B00C2A010E0E6E0ABE8BEF04F089EFF0
:1009100004F091EF04F0096C0A1ED8B00A2A010E07
:100920000E1A000E106E000E0F6E0B500C10D8B485
:100930009CEF04F09EEF04F0C6EF04F0010E0D6E84
:10094000A6EF04F0D8900B360C360D2A0CAEABEFA8
:1009500004F0ADEF04F0A2EF04F0D8900F3610369B
:100960000B50095C0C500A58D8A0B9EF04F0BBEF4B
:1009700004F0C0EF04F00B50095E0C500A5A0F80CF
:10098000D8900C320B320D2EADEF04F00E50D8B4CF
:10099000CCEF04F0CEEF04F0D2EF04F00F6C101E99
:1009A000D8B0102A0FC009F010C00AF01200000ED3
:1009B000086E04BEE0EF04F0DEEF04F0E6EF04F0B2
:1009C000036C041ED8B0042A010E086E06BEEDEFBB
:1009D00004F0EBEF04F0F1EF04F0056C061ED8B064
:1009E000062A05500610D8B4F8EF04F0FAEF04F028
:1009F0001EEF05F0010E076E02EF05F0D8900536E8
:100A00000636072A06AE07EF05F009EF05F0FEEF00
:100A100004F00550035C06500458D8A012EF05F00E
:100A200014EF05F018EF05F00550035E0650045A68
:100A3000D89006320532072E09EF05F00850D8B4D9
:100A400024EF05F026EF05F02AEF05F0036C041EF5
:100A5000D8B0042A03C003F004C004F0120006005A
:100A6000F292040E1C18D8A438EF05F03AEF05F006
:100A70003EEF05F0000E1C6E55EF05F01C2A55EFF9
:100A800005F0000EBB6E76EF05F01F0EBB6E76EF25
:100A900005F03E0EBB6E76EF05F05D0EBB6E76EF99
:100AA00005F07C0EBB6E76EF05F01C50016E026AFD
:100AB0000250000AD8B45FEF05F076EF05F0015060
:100AC000000AD8B441EF05F0010AD8B445EF05F0AB
:100AD000030AD8B449EF05F0010AD8B44DEF05F088
:100AE000070AD8B451EF05F076EF05F0D00E016E8D
:100AF000CA0EE82EFED7012EFCD725921100F80E63
:100B0000956E8C908C828C84F00E00D0E82EFDD7F0
:100B100083CF03F08C94F00E00D0E82EFDD78C84A8
:100B2000F00E00D0E82EFDD78C940350800B036E9E
:100B3000AEEF05F08C84F00E00D0E82EFDD783CF09
:100B400003F08C94F00E00D0E82EFDD78C84F00ECC
:100B500000D0E82EFDD78C9495EF05F0800E031899
:100B6000D8B4B5EF05F0B7EF05F09AEF05F0120035
:100B70008C908C92300E82EC07F0200E066E2A0EBE
:100B8000E82EFED7062EFCD7200E066E2A0EE82E83
:100B9000FED7062EFCD7300E82EC07F0F00E00D008
:100BA000E82EFDD7300E82EC07F0200E82EC07F025
:100BB000010EF8EC06F0280EF8EC06F00F0EF8EC3B
:100BC00006F0060EF8EC06F0010EF8EC06F0120046
:100BD000000E046E000E036E81A2F1EF05F0F3EF3C
:100BE00005F0ECEF05F0140EE82EFED781A2FBEF26
:100BF00005F0FDEF05F001EF06F0D880043604EFB4
:100C000006F004500424046E81B209EF06F00BEFE5
:100C100006F004EF06F0032A070E036412EF06F055
:100C200014EF06F0ECEF05F004501200116E11C045
:100C300009F00A6A000E0C6E640E0B6E75EC04F07F
:100C40000950166E000E066E640E056E11C003F09C
:100C5000046AD7EC04F003C009F004C00AF0000EE7
:100C60000C6E0A0E0B6E75EC04F00950156E11C077
:100C700003F0046A000E066E0A0E056ED7EC04F04F
:100C80000350146E120007C003F008C004F0C0EC5B
:100C900006F003500B6E000E0C6E5EEF06F00C506B
:100CA0000724096E000E08200A6E09C0F6FF0AC06C
:100CB000F7FF0800F55012EC07F00C2A0B500C5C03
:100CC000D8A065EF06F067EF06F04FEF06F01200D0
:100CD0000850080DF350400FF8EC06F0000E096EB6
:100CE00009500624D96E000E0720DA6EDF5012EC90
:100CF00007F0092A070E096480EF06F082EF06F07C
:100D000070EF06F0800EF8EC06F01200200EF66E82
:100D10000F0EF76E000EF86E00EE1DF010EE08F0EC
:100D20000900F5CFEEFFE550E150FAE100EE14F0D6
:100D3000090EEE6AE806FDE125902592000EF86E98
:100D400000010EEF04F0076E0704D8A4AAEF06F026
:100D5000ACEF06F0B2EF06F00650800FF8EC06F0AC
:100D6000BFEF06F0020E0718D8A4B9EF06F0BBEFEC
:100D700006F0BFEF06F00650C00FF8EC06F01200C8
:100D800003C005F004C006F0C8EF06F0034A042AC9
:100D900003C0F6FF04C0F7FF0800F5500009D8A40F
:100DA000D4EF06F0D6EF06F0C6EF06F00550035C70
:100DB000036E06500458046E1200000E956EB8ECD7
:100DC00005F0510E0A6E840EE82EFED70A2EFCD7CF
:100DD00098EC07F094EC07F0010E2CEC07F01D0ED8
:100DE000066E000E076E000E086E68EC06F012002C
:100DF000046E8C907FEC05F0000E956EF00E00D026
:100E0000E82EFDD78C928C948C900450F00B056EDC
:100E1000055082EC07F00438F00B056E055082ECAB
:100E200007F01200046E8C807FEC05F0000E956ECA
:100E3000F00E00D0E82EFDD78C928C948C8004505C
:100E4000F00B056E055082EC07F00438F00B056ED0
:100E5000055082EC07F01200066E0650D8A433EF5E
:100E600007F035EF07F038EF07F00E0EF8EC06F05C
:100E70000604D8A43EEF07F040EF07F043EF07F079
:100E80000C0EF8EC06F0120081B249EF07F04BEFC0
:100E900007F044EF07F081A250EF07F052EF07F0A0
:100EA0004BEF07F081B257EF07F059EF07F052EF21
:100EB00007F0120093928A82030EE82EFED700F00C
:100EC0008A92340E036EF20EE82EFED7032EFCD764
:100ED0008A820D0EE82EFED700F093821200720E69
:100EE000D36E0F0EC16E8B82F28EF288F19EF19C52
:100EF0007C0ECB6E000EBB6E9492050ECA6E0C0E6D
:100F0000BA6E1200036E0F0E8C16F00E031603500D
:100F10008C128C84F00E00D0E82EFDD78C94120039
:100F20000204111111110E00020EF8EC06F012006D
:080F3000010EF8EC06F01200BE
:020000040020DA
:08000000FFFFFFFFFFFFFFFF00
:020000040030CA
:0E0000000008181EFF8181FF0FC00FE00F40A7
:00000001FF
