:020000040000FA
:04000000C2EF3FF01C
:107F84000001C5EF3FF0000E956E000E046E03680D
:107F940004BED5EF3FF0045008E10304D8A0D5EFA8
:107FA4003FF0D7EF3FF0DBEF3FF0C7EF3FF0C7EF15
:107FB4003FF003C08CFF040E026E0C0E016E340EF3
:107FC400E82EFED7012EFCD7022EFAD70306D8A03E
:107FD400040604BEF6EF3FF0045008E10304D8A001
:107FE400F6EF3FF0F8EF3FF0DBEF3FF0C7EF3FF085
:0C7FF400C7EF3FF0C7EF3FF000EF00F0D8
:020000040020DA
:08000000FFFFFFFFFFFFFFFF00
:020000040030CA
:0E0000000002181EFF8181FF0FC00FE00F40AD
:00000001FF
