:020000040000FA
:0400000054EF3FF08A
:107EA80000017BEF3FF0000E0A6E000E096E05D050
:107EB800040EE82EFED7094A0A2A0750095C085022
:107EC8000A58D8B01200F4D701500302F3CF05F0D6
:107ED800F4CF06F001500402F350062602500302C4
:107EE800F350062605C001F006C002F01200959076
:107EF800959281A07ED0000E106E000E0F6E10506D
:107F080039E10A0E0F5CD8B035D0000E0C6E000EA9
:107F18000B6E8C808C920FC001F010C002F0000E26
:107F2800046E640E036E68EC3FF001C007F002C0F7
:107F380008F057EC3FF08C908C820FC001F010C015
:107F480002F0FF0E046E9C0E036E68EC3FF0E80E24
:107F58000124076E030E0220086E57EC3FF00B4A0F
:107F68000C2A0C5004E11E0E0B5CD8A0D2D70F4A85
:107F7800102AC5D7000E126E000E116E1250B9E10C
:107F88000A0E115CD8B0B5D7000E0E6E000E0D6E3D
:107F98008C908C8211C001F012C002F0000E046EA9
:107FA800640E036E68EC3FF001C007F002C008F0F1
:107FB80057EC3FF08C808C9211C001F012C002F097
:107FC800FF0E046E9C0E036E68EC3FF0E80E012471
:107FD800076E030E0220086E57EC3FF00D4A0E2A7A
:107FE8000E5004E11E0E0D5CD8A0D2D7114A122AF9
:087FF800C5D78C928C907DD757
:020000040020DA
:08000000FFFFFFFFFFFFFFFF00
:020000040030CA
:0E0000000002181EFF8181FF0FC00FE00F40AD
:00000001FF
