:020000040000FA
:0400000010EF00F00D
:020004000000FA
:0400080089EF00F08C
:100020000F0EC16E956AC00E936E946A96908B8087
:100030008B828B848B8C8B8E8D80810ED56EA00EE7
:10004000F26E006A00C0F6FF020EF76E0800F5CFF0
:100050008CFF030EF76E0900F5CF8AFF8B907AECC8
:1000600000F08B80020EF76E0800F5CF8CFF030EB8
:10007000F76E0900F5CF8AFF8B927AEC00F08B8245
:10008000020EF76E0800F5CF8CFF030EF76E090025
:10009000F5CF8AFF8B947AEC00F08B84020EF76E1A
:1000A0000800F5CF8CFF030EF76E0900F5CF8AFF2D
:1000B0008B9C7AEC00F08B8C020EF76E0800F5CF6B
:1000C0008CFF030EF76E0900F5CF8AFF8B9E7AEC4A
:1000D00000F08B8E020EF76E0800F5CF8CFF030E3A
:1000E000F76E0900F5CF8AFF8D907AEC00F08D80D5
:1000F00022EF00F0500E016E82EC00F0012E7CEF3A
:1001000000F012000C0E026E0000022E84EF00F0D0
:1001100012000B0ED76EDC0ED66E120E006294EF3C
:0E01200000F0006A95EF00F0002AF294100043
:1002000000000000000070F7383E360038F73E006E
:08021000BDF7360000000000FC
:100300000000000000000C000000090000000000D8
:080310000000090000000000DC
:020000040030CA
:0100000000FF
:0100010000FE
:0100020018E5
:010003001EDE
:010005008179
:010006008178
:00000001FF
