:020000040000FA
:0400000007EF00F016
:0A00080018820DED06F020EF06F05F
:100800000053717561726520776176652067656E4A
:100810002E005052323A00000EC007F00FC008F010
:10082000030E0A6EE80E096E9CEC04F007C016F089
:1008300008C017F0030E056EE80E046E0EC002F03D
:100840000FC003F00FEC05F002C007F003C008F082
:10085000000E0A6E640E096E9CEC04F007C014F0E2
:1008600008C015F0000E056E640E046E0EC002F096
:100870000FC003F00FEC05F002C007F003C008F052
:10088000000E0A6E0A0E096E9CEC04F007C012F00E
:1008900008C013F00EC002F00FC003F0000E056E8A
:1008A0000A0E046E0FEC05F002C010F003C011F048
:1008B0001200F9EC05F03DEC06F054EC06F044ECC7
:1008C00006F050EC06F0000E056E010E90EC05F0FF
:1008D000010E056E080E066E100E076E71EC05F027
:1008E000C282C2B276EF04F078EF04F071EF04F048
:1008F000C4CFCBFF000E056E020E90EC05F0120E79
:10090000056E080E066E040E076E71EC05F0CBCF77
:100910000EF00F6A0CEC04F01450300FC7EC05F029
:100920001250300FC7EC05F01050300FC7EC05F037
:1009300070EF04F007EF00F0000E0C6E000E0B6E6F
:1009400009500A10D8B4A7EF04F0A9EF04F0D1EFD2
:1009500004F0010E0D6EB1EF04F0D89009360A369E
:100960000D2A0AAEB6EF04F0B8EF04F0ADEF04F0D4
:10097000D8900B360C360950075C0A500858D8A09E
:10098000C4EF04F0C6EF04F0CBEF04F00950075EAB
:100990000A50085A0B80D8900A3209320D2EB8EF4F
:1009A00004F00BC007F00CC008F01200F80E956EB2
:1009B0008C908C828C84F00E00D0E82EFDD783CFF3
:1009C00002F08C94F00E00D0E82EFDD78C84F00E4F
:1009D00000D0E82EFDD78C940250800B026E05EFFC
:1009E00005F08C84F00E00D0E82EFDD783CF02F006
:1009F0008C94F00E00D0E82EFDD78C84F00E00D041
:100A0000E82EFDD78C94ECEF04F0800E0218D8B4D9
:100A10000CEF05F00EEF05F0F1EF04F012000450BA
:100A20000510D8B416EF05F018EF05F03CEF05F00F
:100A3000010E066E20EF05F0D89004360536062A22
:100A400005AE25EF05F027EF05F01CEF05F004508B
:100A5000025C05500358D8A030EF05F032EF05F0E6
:100A600036EF05F00450025E0550035AD890053267
:100A70000432062E27EF05F002C002F003C003F097
:100A800012008C908C92300E2FEC06F0200E056E2A
:100A90002A0EE82EFED7052EFCD7200E056E2A0E54
:100AA000E82EFED7052EFCD7300E2FEC06F0F00E08
:100AB00000D0E82EFDD7300E2FEC06F0200E2FECE4
:100AC00006F0010EADEC05F0280EADEC05F00F0EB2
:100AD000ADEC05F0060EADEC05F0010EADEC05F049
:100AE0001200000E0A6E000E0A6E86EF05F00A5024
:100AF0000524086E000E0620096E08C0F6FF09C026
:100B0000F7FF0800F550C7EC05F00A2A07500A5C09
:100B1000D8A08DEF05F08FEF05F077EF05F012000C
:100B2000066E0604D8A497EF05F099EF05F09FEF45
:100B300005F00550800FADEC05F0ACEF05F0020EAE
:100B40000618D8A4A6EF05F0A8EF05F0ACEF05F065
:100B50000550C00FADEC05F01200036E8C90D6EC82
:100B600004F0000E956EF00E00D0E82EFDD78C92AA
:100B70008C948C900350F00B046E04502FEC06F014
:100B80000338F00B046E04502FEC06F01200036ED5
:100B90008C80D6EC04F0000E956EF00E00D0E82E9E
:100BA000FDD78C928C948C800350F00B046E045013
:100BB0002FEC06F00338F00B046E04502FEC06F017
:100BC0001200056E0550D8A4E8EF05F0EAEF05F035
:100BD000EDEF05F00E0EADEC05F00504D8A4F3EF33
:100BE00005F0F5EF05F0F8EF05F00C0EADEC05F0B3
:100BF0001200000E956E41EC05F0EA0E066EC30E73
:100C0000E82EFED7062EFCD700F04CEC06F048ECA0
:100C100006F0010EE1EC05F0120006008DA013EFC6
:100C200006F017EF06F0016A012A18EF06F0016AD4
:100C30008D500118FE0B01188D6E9E9218921100B6
:100C400000EE10F0080EEE6AE806FDE1189018922A
:100C5000000EF86E080EF76E000159EF04F0026EF8
:100C60000F0E8C16F00E021602508C128C84F00EB1
:100C700000D0E82EFDD78C941200240EC06E0E0E0C
:100C8000C16E010EC26E12000F0EC16E9690120060
:100C9000020EADEC05F01200010EADEC05F01200F5
:0E0CA000F28EF28C9D821200450ECA6E12007A
:020000040020DA
:08000000FFFFFFFFFFFFFFFF00
:020000040030CA
:0E0000000002181EFF8181FF0FC00FE00F40AD
:00000001FF
