:020000040000FA
:0400000007EF00F016
:0A0008000D82C1ED05F0CFEF05F009
:1008000000536572766F2061203138300053657275
:10081000766F206120393000486F6C61206D756EF5
:10082000646F00536572766F2061203000202020B5
:1008300020200000F28EF288F0860F0EC16E969096
:10084000000E956E16EC05F0EA0E0A6EC30EE82E49
:10085000FED70A2EFCD700F0010EA5EC05F0DBEC6C
:1008600005F0D7EC05F0180E046E080E056E0A0EA2
:10087000066E7AEC05F097D0000E046E020E93EC33
:1008800005F00D0E046E080E056E0A0E066E7AEC6B
:1008900005F0DF0E46EC05F02D0E046E080E056E19
:1008A0000F0E066E7AEC05F016D08D80180E0A6ECB
:1008B0005F0EE82EFED70A2EFCD700F08D90020EB8
:1008C0000B6E210E0A6E4C0EE82EFED70A2EFCD7B8
:1008D0000B2EFAD700D00C50D8A465D0E6D7000E66
:1008E000046E020E93EC05F0230E046E080E056EE6
:1008F000090E066E7AEC05F0DF0E46EC05F02D0EC3
:10090000046E080E056E100E066E7AEC05F016D019
:100910008D80100E0A6E940EE82EFED70A2EFCD79C
:1009200000D08D90020E0B6E290E0A6E170EE82E67
:10093000FED70A2EFCD70B2EFAD700F00C04D8A451
:1009400032D0E6D7000E046E020E93EC05F0010ED5
:10095000046E080E056E0B0E066E7AEC05F0DF0EC7
:1009600046EC05F02D0E046E080E056E0E0E066E9A
:100970007AEC05F014D08D80200E0A6E2A0EE82E37
:10098000FED70A2EFCD78D90020E0B6E190E0A6E42
:10099000820EE82EFED70A2EFCD70B2EFAD7020EB7
:1009A0000C18D8B4E8D70C500A6E0B6A0B50000A2A
:1009B000D8A4F9D70A50000AD8B45ED7010AD8B42F
:1009C0008ED7030AD8B4BED7EED7F80E956E8C90AA
:1009D0008C828C84F00E00D0E82EFDD783CF01F0FE
:1009E0008C94F00E00D0E82EFDD78C84F00E00D051
:1009F000E82EFDD78C940150800B016E12D08C84B0
:100A0000F00E00D0E82EFDD783CF01F08C94F00ECD
:100A100000D0E82EFDD78C84F00E00D0E82EFDD754
:100A2000E9D7800E0118D8A41200E9D78C908C92D7
:100A3000300EB3EC05F0200E046E2A0EE82EFED721
:100A4000042EFCD7200E046E2A0EE82EFED7042EAC
:100A5000FCD7300EB3EC05F0F00E00D0E82EFDD739
:100A6000300EB3EC05F0200EB3EC05F0010E60EC97
:100A700005F0280E60EC05F00F0E60EC05F0060E98
:100A800060EC05F0010E60EC05F01200026E8C8047
:100A9000E5EC04F0000E956EF00E00D0E82EFDD7C8
:100AA0008C928C948C800250F00B036E0350B3EC4C
:100AB00005F00238F00B036E0350B3EC05F01200A2
:100AC000026E8C90E5EC04F0000E956EF00E00D0F6
:100AD000E82EFDD78C928C948C900250F00B036E14
:100AE0000350B3EC05F00238F00B036E0350B3EC87
:100AF00005F01200000E096E000E096E0FD00950AD
:100B00000424076E000E0520086E07C0F6FF08C01B
:100B1000F7FF0800F55046EC05F0092A0650095C7D
:100B2000D8B01200ECD7056E0504D8A405D0045047
:100B3000800F60EC05F01200020E0518D8A4120018
:100B40000450C00F60EC05F01200046E0450D8A4ED
:100B500003D00E0E60EC05F00404D8A412000C0EB5
:100B600060EC05F01200016E0F0E8C16F00E0116EF
:100B700001508C128C84F00E00D0E82EFDD78C949E
:100B800012000600F2A204D0010E0C6EF29205D003
:100B9000F0A003D0020E0C6EF0900D9211000C6AC2
:100BA0000D900D92000EF86E00011AEF04F0020E87
:0E0BB00060EC05F01200010E60EC05F0120082
:020000040020DA
:08000000FFFFFFFFFFFFFFFF00
:020000040030CA
:0E0000000002181EFF8181FF0FC00FE00F40AD
:00000001FF
