:0400000007EF00F016
:0A0008000F824FED05F002EF06F045
:100800000053656D616E6120313120736572766FC2
:0308100073000072
:10081400F8EC05F0D6EC05F0000E066E010E6DEC5A
:1008240005F0010E066E080E076E100E086E30EC11
:1008340005F09CEF04F08D80F00E00D0E82EFDD77B
:100844008D90330E0C6E620EE82EFED70C2EFCD764
:1008540000D09CEF04F08D80E40E00D000D0E82E90
:10086400FCD700D000D08D90320E0C6EDE0EE82E38
:10087400FED70C2EFCD79CEF04F08D80030E0C6E7B
:10088400980EE82EFED70C2EFCD78D90320E0C6EEF
:10089400580EE82EFED70C2EFCD700D09CEF04F0A7
:1008A4008D80040E0C6E1C0EE82EFED70C2EFCD789
:1008B40000D08D90310E0C6ED40EE82EFED70C2E87
:1008C400FCD79CEF04F08D80040E0C6EA20EE82E73
:1008D400FED70C2EFCD78D90310E0C6E4E0EE82EEA
:1008E400FED70C2EFCD700D09CEF04F08D80050EB3
:1008F4000C6E260EE82EFED70C2EFCD700D08D9061
:10090400300E0C6ECA0EE82EFED70C2EFCD79CEFD0
:1009140004F08D80050E0C6EAC0EE82EFED70C2E66
:10092400FCD78D90300E0C6E440EE82EFED70C2EA4
:10093400FCD700D00E500C6E0D6A0D50000AD8B4CE
:10094400A6EF04F09CEF04F00C50000AD8B41DEF9D
:1009540004F0010AD8B42DEF04F0030AD8B43FEF31
:1009640004F0010AD8B452EF04F0070AD8B465EFD2
:1009740004F0010AD8B478EF04F0030AD8B48BEF7A
:1009840004F09CEF04F007EF00F0F80E956E8C90E5
:100994008C828C84F00E00D0E82EFDD783CF03F038
:1009A4008C94F00E00D0E82EFDD78C84F00E00D08D
:1009B400E82EFDD78C940350800B036EF6EF04F001
:1009C4008C84F00E00D0E82EFDD783CF03F08C94F6
:1009D400F00E00D0E82EFDD78C84F00E00D0E82E67
:1009E400FDD78C94DDEF04F0800E0318D8B4FDEF2E
:1009F40004F0FFEF04F0E2EF04F012008C908C920C
:100A0400300EEAEC05F0200E066E2A0EE82EFED714
:100A1400062EFCD7200E066E2A0EE82EFED7062ED2
:100A2400FCD7300EEAEC05F0F00E00D0E82EFDD72E
:100A3400300EEAEC05F0200EEAEC05F0010E8AEC2B
:100A440005F0280E8AEC05F00F0E8AEC05F0060E70
:100A54008AEC05F0010E8AEC05F01200000E0B6E14
:100A6400000E0B6E45EF05F00B500624096E000EC8
:100A740007200A6E09C0F6FF0AC0F7FF0800F55008
:100A8400A4EC05F00B2A08500B5CD8A04CEF05F041
:100A94004EEF05F036EF05F012000600F292060E56
:100AA4000E18D8A458EF05F05AEF05F05EEF05F0E4
:100AB400000E0E6E5FEF05F00E2A020E026E380E67
:100AC400016EAD0EE82EFED7012EFCD7022EFAD70A
:100AD40000F00F921100076E0704D8A474EF05F01C
:100AE40076EF05F07CEF05F00650800F8AEC05F0F8
:100AF40089EF05F0020E0718D8A483EF05F085EFFF
:100B040005F089EF05F00650C00F8AEC05F01200DD
:100B1400046E8C90C7EC04F0000E956EF00E00D0BD
:100B2400E82EFDD78C928C948C900450F00B056EBB
:100B34000550EAEC05F00438F00B056E0550EAECBC
:100B440005F01200046E8C80C7EC04F0000E956E64
:100B5400F00E00D0E82EFDD78C928C948C8004503B
:100B6400F00B056E0550EAEC05F00438F00B056E49
:100B74000550EAEC05F01200066E0650D8A4C5EF45
:100B840005F0C7EF05F0CAEF05F00E0E8AEC05F08C
:100B94000604D8A4D0EF05F0D2EF05F0D5EF05F0A8
:100BA4000C0E8AEC05F01200000E956E00EC05F0B8
:100BB4003C0E076EBC0EE82EFED7072EFCD700D0E5
:100BC4000EEC06F00AEC06F0010EBEEC05F0120085
:100BD400036E0F0E8C16F00E031603508C128C84C9
:100BE400F00E00D0E82EFDD78C941200700ED36E58
:100BF40096900F0EC16EF28EF288F19EF19C120057
:100C04000E6A0F900F92000EF86E00010AEF04F0C6
:100C1400020E8AEC05F01200010E8AEC05F01200B7
:020000040020DA
:08000000FFFFFFFFFFFFFFFF00
:020000040030CA
:0E0000000008181EFF8181FF0FC00FE00F40A7
:00000001FF
